:020000040800F2
:100000000050002041800008CD080008CF080008FB
:10001000D1080008D3080008D50800080000000037
:10002000000000000000000000000000D7080008E9
:10003000D908000800000000DB080008DD080008FF
:10004000898000088980000889800008898000086C
:10005000898000088980000889800008898000085C
:10006000898000088980000889800008898000084C
:10007000898000088980000889800008898000083C
:10008000898000088980000889800008898000082C
:10009000E508000889800008898000088980000838
:1000A000898000088980000889800008898000080C
:1000B00089800008898000088980000889800008FC
:1000C00089800008898000088980000889800008EC
:1000D00089800008898000088980000889800008DC
:1000E00089800008898000088980000800000000DD
:1000F0000000000000000000000000000000000000
:0C01000000000000000000005FF808F1A3
:10010C0010B5054C237833B9044B13B10448AFF345
:10011C0000800123237010BDF801002000000000B6
:10012C006489000808B5034B1BB103490348AFF3BE
:10013C00008008BD00000000FC010020648900085C
:10014C00034613F8012B002AFBD1181A013870470B
:10015C002DE9F04188B0002404940594069407948A
:10016C00254B9A6942F010029A619A6902F01002CA
:10017C000092009A9A6942F020029A619A6902F000
:10018C0020020192019A9A6942F004029A619A69DA
:10019C0002F004020292029A9A6942F008029A61F1
:1001AC009B6903F008030393039BDFF854802246FA
:1001BC004FF40051404604F009F9104D224603213A
:1001CC00284604F003F94FF40053049301270597D4
:1001DC0006940226079604A9404603F0E7FF032382
:1001EC00049305970694079604A9284603F0DEFFAE
:1001FC0008B0BDE8F08100BF00100240000C0140C7
:10020C000010014072B6FEE708B50D480D4B0360B7
:10021C004FF48273436000238360C36003614361C6
:10022C004FF4007282613022C261036243628362C6
:10023C000A23C36204F0F8F900B908BDFFF7E2FF26
:10024C00780C00200038004008B50B480B4B0360BD
:10025C0041F28833436000238360C3604FF48042D3
:10026C00026143618361C361036207F091FA00B9D3
:10027C0008BDFFF7C7FF00BFD00C002000540040A2
:10028C0008B50D480D4B03604FF482734360002397
:10029C008360C360036143614FF40072826120226A
:1002AC00C2610362436283620A23C36204F0BCF935
:1002BC0000B908BDFFF7A6FFB00D002000300140CB
:1002CC0008B50A480A4B03604FF4E133436000233E
:1002DC008360C36003610C2242618361C36107F0D8
:1002EC000DFE00B908BDFFF78DFF00BF240D0020E7
:1002FC000038014000B595B000230D930F93109377
:10030C000593069307930893099301930293039320
:10031C00049301220A924FF480320B920C930E93A9
:10032C000223119312924FF4E01313930AA803F0D3
:10033C0099FBC0B90F230593022106910023079363
:10034C004FF480620892099305A803F0C9FD60B9C7
:10035C00102301930023049301A803F09DFE30B9F0
:10036C0015B05DF804FBFFF74DFFFFF74BFFFFF7F0
:10037C0049FF0000F0B5ADF6740D03F025FBFFF757
:10038C00B9FFFFF7E5FEFFF73FFF00F09FFB00F022
:10039C0043FFFFF759FFFFF773FFFFF791FFC048CB
:1003AC0004F04AFCBF4E3446BF4D0FCD0FC495E848
:1003BC000F0084E80F003046FFF7C2FE322382B2F2
:1003CC003146BA4807F0C9FD322003F021FB012267
:1003DC00B7490DF5C86005F0FFFC70B10246B54990
:1003EC00304607F071FE3046FFF7AAFE322382B288
:1003FC003146AE4807F0B1FDFEE70DF20C420DF5AB
:10040C008261AB4806F093F8024670B1A54CAA493C
:10041C00204607F059FE2046FFF792FE322382B2A7
:10042C002146A24807F099FDFEE7DDF80C24D2F82E
:10043C001432023B92F8021201FB03F2DDF8103485
:10044C0003FB01F3974C5B0852089C49204607F0CC
:10045C003BFE2046FFF774FE322382B221469348BE
:10046C0007F07BFD012296490DF2144005F0E4FCE7
:10047C00074670B102469349204607F025FE2046F8
:10048C00FFF75EFE322382B22146884807F065FDF5
:10049C00FEE7844E34468C4D0FCD0FC40FCD0FC4E8
:1004AC0095E80F0007C423703046FFF749FE32234E
:1004BC0082B231467D4807F050FD0DF214421E21E8
:1004CC0003A806F0AFF8002800F0898003AA7F4942
:1004DC00304607F0F9FD3046FFF732FE322382B288
:1004EC003146724807F039FD0DF2144006F00BF856
:1004FC001A2277490DF2144005F09EFC02460028A2
:10050C007DD1684E3446734D0FCD0FC40FCD0FC443
:10051C0095E80F0007C423703046FFF711FE322315
:10052C0082B23146614807F018FD03AC6A4D0FCD1D
:10053C000FC40FCD0FC40FCD0FC495E8070003C433
:10054C0024F8022B120C227003A8FFF7F9FD0246C7
:10055C0002AB03A90DF2144005F059FE0246002827
:10056C005CD1504C029A5D49204607F0ADFD204607
:10057C00FFF7E6FD322382B221464C4807F0EDFC32
:10058C000DF2144005F0BFFF00224949104605F05A
:10059C0023FC01F04BF801F04DF84FF4AB43ADF8F0
:1005AC00043000238DF803304D4C6423022201A942
:1005BC00204604F094F8642301220DF10301204637
:1005CC0004F080FA01F028F89DF80330552BE2D1A5
:1005DC00642308224349354807F0BFFCA0E0314CA6
:1005EC003A464149204607F06FFD2046FFF7A8FD2B
:1005FC00322382B221462D4807F0AFFC74E7294C18
:10060C003049204607F060FD2046FFF799FD322364
:10061C0082B22146254807F0A0FC86E7214C3349DD
:10062C00204607F051FD2046FFF78AFD322382B2A7
:10063C0021461E4807F091FCA2E72D4B05221A70AB
:10064C00184E34462B4D0FCD0FC495E8070003C44C
:10065C0024F8022B120C22703046FFF771FD322366
:10066C0082B23146114807F078FCD0E0204B0B22C7
:10067C001A700C4E3446204D0FCD0FC495E8070070
:10068C0003C424F8022B120C22703046FFF758FDDD
:10069C00322382B23146054807F05FFCB7E000BF59
:1006AC00680D0020140200207C890008240D002015
:1006BC003C8B00089C890008B4890008CC89000890
:1006CC00148A0008208A0008348A0008648A00080A
:1006DC00A48A0008B08A0008E08A00081C8B000875
:1006EC00B00D0020588B0008908A0008408B000841
:1006FC00390C0020888B0008C88B0008654E3446E6
:10070C00654D0FCD0FC40FCD0FC42B682360304641
:10071C00FFF716FD322382B23146604807F01DFC0C
:10072C005F4B60221A700121FF2001F003F80DF1DC
:10073C0007010A2001F016F80DF106010B2001F05B
:10074C0011F89DF80730262B3FF477AF514C554DDF
:10075C000FCD0FC40FCD0FC42B682360504B7822E4
:10076C001A700DF1070143F20A0001F09DF80DF12A
:10077C00060143F20B0001F097F89DF80730562B59
:10078C0004D19DF80630402B3FF470AF414E3446F7
:10079C00454D0FCD0FC40FCD0FC42B6823603046D1
:1007AC00FFF7CEFC322382B231463C4807F0D5FB32
:1007BC003B4B78221A700DF1070143F20A0001F04D
:1007CC0073F80DF1060143F20B0001F06DF89DF882
:1007DC000730562B92D19DF80630422B8ED1334BDD
:1007EC0003221A702B4E3446314D0FCD0FC495E8B1
:1007FC00070003C424F8022B120C22703046FFF7BA
:10080C009FFC322382B23146244807F0A6FB274BCB
:10081C00187801F069F8082000F0D4FF1D4E34461A
:10082C00244D0FCD0FC40FCD0FC495E8030044F831
:10083C00040B21703046FFF783FC322382B2314621
:10084C00164807F08AFB00F047FF00F051FF00F05C
:10085C0049FF0821412000F067FF0028F9D000F083
:10086C004DFF02460B4C1449204607F02DFC204648
:10087C00FFF766FC322382B22146084807F06DFB75
:10088C004FF400510D4803F0A7FDC82003F0C0F849
:10089C00F6E700BF14020020E48B0008240D0020B2
:1008AC00380C0020648B0008A48B0008390C002045
:1008BC00088C0008248C00084C8C000800100140A7
:1008CC00FEE7FEE7FEE7FEE7FEE77047704770477E
:1008DC0008B503F08BF808BD08B5024801F054FECA
:1008EC0008BD00BF081F002082B00A4B9A6942F075
:1008FC0001029A619A6902F001020092009ADA6987
:10090C0042F08052DA61DB6903F080530193019B62
:10091C0002B070470010024010B586B0002302935D
:10092C000393049305930268114B9A4201D006B0CD
:10093C0010BD104CA36943F00803A361A36903F035
:10094C0008030093009BC0230293122303930323F9
:10095C00059302A9084803F029FCE36943F400134A
:10096C00E361E36903F400130193019BDFE700BF2C
:10097C000054004000100240000C014010B588B03B
:10098C000023049305930693079303682C4A934220
:10099C0004D02C4A934229D008B010BD2A4B9A6936
:1009AC0042F480529A619A6902F480520092009A41
:1009BC009A6942F004029A619B6903F00403019363
:1009CC00019BA023049302230593032307931F4C3D
:1009DC0004A9204603F0EAFB40230493002305936B
:1009EC00069304A9204603F0E1FBD5E7164BDA6920
:1009FC0042F48042DA61DA6902F480420292029A8D
:100A0C009A6942F008029A619B6903F00803039308
:100A1C00039B4FF420430493022305930323079372
:100A2C000B4C04A9204603F0C1FB4FF48043049304
:100A3C0000230593069304A9204603F0B7FBABE70C
:100A4C000030014000380040001002400008014016
:100A5C00000C014010B586B000230293039304935D
:100A6C0005930268174B9A4201D006B010BD03F5EE
:100A7C0058439A6942F480429A619A6902F480421E
:100A8C000092009A9A6942F004029A619B6903F001
:100A9C0004030193019B4FF400730293022303930D
:100AAC0003230593084C02A9204603F07FFB4FF467
:100ABC008063029300230393049302A9204603F05E
:100ACC0075FBD2E7003801400008014008B5034926
:100ADC00034805F0F1FD034B187008BD080E00200B
:100AEC00000000200C0E00200020704708B500F01C
:100AFC0025F908BD08B500F0D5F908BD08B500F01A
:100B0C00DBF908BD08B500F01DFA08BD08B500F00A
:100B1C0071FA08BD00B587B08DF80F003223009331
:100B2C0001230DF117020DF10F01044803F0AEFE85
:100B3C009DF8170007B05DF804FB00BF780C00208F
:100B4C0070B5064602F05EFF0546FF20FFF7E2FF98
:100B5C000446FF2804D002F055FF401BB042F4D3EA
:100B6C00FF2C14BF0020012070BD70B506460D4649
:100B7C000024AC4205D2FF20FFF7CCFF30550134E6
:100B8C00F7E770BD70B506460D460024AC4204D2A2
:100B9C00305DFFF7BFFF0134F8E770BD38B505468F
:100BAC000C464FF4FA70FFF7CBFF00B938BD204666
:100BBC00FFF7B0FFFD2C01D10120F7E74FF40071D6
:100BCC002846FFF7DFFFFF20FFF7A4FFFF20FFF70A
:100BDC00A1FFFF20FFF79EFF00F01F00052801D1A9
:100BEC000120E3E70020E1E708B5012202210348D8
:100BFC0003F0ECFBFF20FFF78DFF08BD000C01405C
:100C0C0010B500220221094803F0E0FBFF20FFF79A
:100C1C0081FF4FF4FA70FFF793FF10B101242046C7
:100C2C0010BD0446FFF7E0FFF9E700BF000C0140E0
:100C3C0038B504460D4610F0800F2CD10C2C04D086
:100C4C00FFF7D2FFFFF7DCFFB0B344F04000FFF733
:100C5C0061FF280EFFF75EFFC5F30740FFF75AFF51
:100C6C00C5F30720FFF756FFE8B2FFF753FFDCB1DF
:100C7C000120082C1AD0FFF74DFF0C2C18D00A2499
:100C8C00FF20FFF747FF10F0800F03D0631E13F017
:100C9C00FF04F5D138BD00F07F0400213720FFF7A9
:100CAC00C7FF0128CAD9F5E79520E2E78720E2E7DC
:100CBC00FF20FFF72FFFE2E7FF20EBE710B504461C
:100CCC0002F0A0FE024B1860024B1C6010BD00BF6E
:100CDC006C1200207012002008B502F093FE054B38
:100CEC001B68C01A044B1B6898422CBF00200120C3
:100CFC0008BD00BF6C1200207012002070B50546B4
:100D0C000E46C820FFF7DAFFFF20FFF703FF04466B
:100D1C00FF2803D1FFF7E0FF0028F5D1FE2C01D00E
:100D2C00002070BD31462846FFF71FFFFF20FFF75C
:100D3C00F1FEFF20FFF7EEFE0120F2E7002840F065
:100D4C00A980554B1B7813F0020F11D170B582B0EE
:100D5C00524B1A68136823F0380343F030031360C6
:100D6C000A244CB1FF20FFF7D5FE013CE4B2F8E7B2
:100D7C00494B1878C0B2704700210846FFF758FF5E
:100D8C000546012817D0464B1C70FFF72DFF002C91
:100D9C007CD0424B1A68136823F0380343F01003DD
:100DAC0013603D4A137803F0FE0313703A4B187826
:100DBC00C0B202B070BD4FF47A70FFF77FFF4FF4F2
:100DCC00D5710820FFF734FF01283CD1254608E0F7
:100DDC00FF20FFF79FFE02AB2B4403F8040C0135F8
:100DEC00EDB2032DF4D99DF80630012BCBD19DF833
:100DFC000730AA2BC7D1FFF76FFF30B14FF08041FE
:100E0C00A920FFF715FF0028F5D1FFF765FF08B9FA
:100E1C000446B8E700213A20FFF70AFF054648B11F
:100E2C00B1E7FF20FFF776FE02AB2B4403F8040C6E
:100E3C000135EDB2032DF4D99DF8043013F0400FB9
:100E4C0022D00C249FE70021A920FFF7F1FE0128F6
:100E5C000ED92E46FFF740FF28B100212846FFF798
:100E6C00E7FE0028F6D1FFF737FF20B904468AE7E2
:100E7C000226A925EEE74FF400711020FFF7D8FEEB
:100E8C00002880D134467EE704247CE7024B012203
:100E9C001A708BE70120704714000020780C00209A
:100EAC00140A002018B9034B1878C0B270470120FF
:100EBC00704700BF14000020002839D138B50D460A
:100ECC001C46002B36D01D4B1B7813F0010F33D171
:100EDC001B4B1B7813F0080F00D15202012C18D0B9
:100EEC0011461220FFF7A4FE68B94FF40071284692
:100EFC00FFF704FF18B105F50075013CF5D1002191
:100F0C000C20FFF795FEFFF76FFE201E18BF012087
:100F1C0038BD11461120FFF78BFE0028F3D14FF49A
:100F2C0000712846FFF7EAFE0028ECD00024EAE71F
:100F3C00042070470420EBE70320E9E714000020AD
:100F4C00140A0020002848D170B50D4616461C46E0
:100F5C00002B44D0254B1B7813F0010F41D1234BB0
:100F6C001B7813F0040F3ED1214B1B7813F0080FA4
:100F7C0000D15602012C1BD013F0060F26D131469E
:100F8C001920FFF755FE68B9FC212846FFF706FE2D
:100F9C0018B105F50075013CF6D1FD210020FFF7D5
:100FAC00FDFDC0B1FFF720FE201E18BF012070BD53
:100FBC0031461820FFF73CFE0028F3D1FE212846CD
:100FCC00FFF7ECFD0028EDD00024EBE7214697203D
:100FDC00FFF72EFED3E70124E4E70420704704203A
:100FEC00E5E70320E3E70220E1E700BF140000205F
:100FFC00140A002070B584B0002840F004810D461E
:10100C001646834B1B7813F0010F40F0FE80042929
:10101C0000F2ED80DFE811F005000C00EB0054004D
:10102C00AF00FFF7EDFD002840F0E380012406E05F
:10103C0000210920FFF7FCFD044628B12C46FFF7E0
:10104C00D3FD204604B070BD10216846FFF756FE54
:10105C00002800F0D0809DF800309B09012B1FD098
:10106C009DF8052002F00F029DF80A3002EBD31216
:10107C009DF809305B0003F006031A449DF8081034
:10108C009DF807309B0003EB91139DF80610890225
:10109C0001F440610B440133073A93403360CEE7CF
:1010AC009DF809309DF8082003EB02239DF80720DA
:1010BC00120402F47C12134401339B023360BEE72A
:1010CC00544B1B7813F0040F20D000218D20FFF718
:1010DC00AFFD08B10124B2E7FF20FFF71BFD102183
:1010EC006846FFF70BFE78B90124A8E7FF20FFF74D
:1010FC0011FD013CE4B2002CF8D19DF80A301A091C
:10110C001023934033609AE73024F4E70021092040
:10111C00FFF78EFD054608B1012490E710216846C3
:10112C00FFF7ECFD002868D03A4B1C7814F0020451
:10113C0011D09DF80A305B0003F07E039DF80B2064
:10114C0003EBD21301339DF80D209209013A934021
:10115C0033602C4673E79DF80A30C3F384029DF884
:10116C000B10CB0003F0180303EB5113013302FBFC
:10117C000333336063E7274B1B7813F0060F01D161
:10118C0001245CE76A460B21FFF734FFB8BB9DF8DE
:10119C0000309B0904D19DF80A3013F0400F30D079
:1011AC00316874681B4B1B7813F0080F01D149028E
:1011BC0064022020FFF73CFD08B101243FE72146E3
:1011CC002120FFF735FD08B1012438E70021262046
:1011DC00FFF72EFD044608B1012430E747F23050EA
:1011EC00FFF7AEFC00287FF42AAF012427E7042484
:1011FC0025E72C4623E72C4621E701241FE7012491
:10120C001DE701241BE704241BE7032419E700BF97
:10121C0014000020140A002008B500220F491048C1
:10122C0005F04FFA70B90F490D4805F061FA60B935
:10123C000D490B4806F063F850B9094805F05FFA00
:10124C0048B908BDFEF7DEFFEDE7FEF7DBFFEFE781
:10125C00FEF7D8FFF1E7FEF7D5FFF2E71800002004
:10126C0074120020840000206800002012230B80E0
:10127C00004870473400002004230B80004870475E
:10128C00480000200023934217D230B40BE03734CF
:10129C0001F8134000015C00013400250D550133A9
:1012AC00DBB2934207D2040FB0F1204FEFD23034AF
:1012BC0001F81340EEE730BC7047704738B50A4B65
:1012CC00186804331C6804331B68C01800D138BD7F
:1012DC00064D0822A91CFFF7D5FF042205F11201C7
:1012EC002046FFF7CFFFF2E7E8F7FF1F4C00002086
:1012FC0008B51A230B80FFF7E1FF014808BD00BFBA
:10130C004C00002008B50A4628B90549054805F0E7
:10131C004CFE034808BD0249024805F046FEF8E7BA
:10132C00381500206C8C000810B50A46034C214679
:10133C00034805F03AFE204610BD00BF38150020CA
:10134C00848C000808B50A4628B90549054805F0FB
:10135C002CFE034808BD0249024805F026FEF8E7BA
:10136C0038150020988C000808B50A4628B905499C
:10137C00054805F01AFE034808BD0249024805F06D
:10138C0014FEF8E738150020A48C000800207047E4
:10139C000020704710B50146044C204605F0BEFFF6
:1013AC00204605F0C1FF002010BD00BF74120020C4
:1013BC0010B5064C00220649204605F0A7FF05494A
:1013CC00204605F0ABFF002010BD00BF74120020BA
:1013DC00201B002038170020022805D8DFE800F079
:1013EC0005040200012070470220704702680E4B72
:1013FC009A4200D0704700B583B003F5DA33DA694E
:10140C0042F40002DA61DB6903F400030193019BEF
:10141C0000221146142002F0FBFF142003F02CF8DC
:10142C0003B05DF804FB00BF005C004008B500F59C
:10143C002C71D0F8E80205F07AF908BD08B501EB7B
:10144C00810300EBC303D3F87C21D0F8E80205F04C
:10145C009BF908BD08B501EB810300EBC303DA6B04
:10146C00D0F8E80205F0D6F908BD08B5D0F8E802C6
:10147C0005F077FA08BD10B504468368022B09D134
:10148C000121D4F8E80205F055FAD4F8E80205F089
:10149C0029FA10BDFEF7B6FEF2E7000010B50446BF
:1014AC00D0F8E80205F049FAA36923B1024A13699E
:1014BC0043F00603136110BD00ED00E008B5D0F851
:1014CC00E80205F043FA08BD10B504461D48C0F803
:1014DC00E842C4F8C0021C4B03600823436002239B
:1014EC00836000238361C361036200F06AFB30BB3D
:1014FC00182300221146D4F8C00201F061FA5823D7
:10150C0000228021D4F8C00201F05AFAC023002234
:10151C008121D4F8C00201F053FA4FF488730022F1
:10152C000121D4F8C00201F04BFA4FF48073002271
:10153C008221D4F8C00201F043FA002010BDFEF75E
:10154C0061FED5E7081F0020005C004008B5D0F80C
:10155C00C00200F0BCFBFFF73FFF08BD10B51446FE
:10156C001A462346D0F8C00201F0F7F8FFF734FF13
:10157C0010BD08B5D0F8C00201F02BF9FFF72CFF15
:10158C0008BD08B5D0F8C00201F0A3F9FFF724FF9D
:10159C0008BD08B5D0F8C00201F0D7F9FFF71CFF61
:1015AC0008BDD0F8C03211F0800F08D101F07F01D6
:1015BC0001EB810103EBC10191F86A01704701F065
:1015CC007F01013101EB810103EBC1018878704788
:1015DC0008B5D0F8C00200F0C3FFFFF7FDFE08BD50
:1015EC0008B5D0F8C00201F051F9FFF7F5FE08BDBF
:1015FC0008B5D0F8C00201F01EF9FFF7EDFE08BDEA
:10160C0008B5D0F8C00201F038F908BD00487047A1
:10161C00180A00207047704708B50122114602488D
:10162C0002F0D4FE08BD00BF000C014008B5FFF766
:10163C00F3FF08BD08B500220121024802F0C6FEE6
:10164C0008BD00BF000C014010B586B00390FFF739
:10165C00F1FF0D4C3223012203A9204603F03FF881
:10166C0000238DF817303223009301230DF116025D
:10167C000DF11701204603F009F9FFF7CDFF9DF896
:10168C00160006B010BD00BFB00D002010B582B022
:10169C0001900091FFF7CEFF084C3223012201A9E3
:1016AC00204603F01CF8322301226946204603F041
:1016BC0016F8FFF7B1FF012002B010BDB00D0020ED
:1016CC0008B500F07F00FFF7BFFF08BD08B540F07C
:1016DC008000FFF7DBFF08BD08B501210420FFF7F0
:1016EC00F5FF08BD08B502210420FFF7EFFF08BD88
:1016FC0008B501210420FFF7E9FF08BD38B54220E9
:10170C00FFF7DEFF05464320FFF7DAFF04464420CF
:10171C00FFF7D6FF00F07F00240244EA004444EABD
:10172C000500C0F3160038BD10B50C46FFF7C8FF16
:10173C00204010BD00B585B08DF80C008DF80D1053
:10174C0064230093022303AA04490978044806F091
:10175C00FDF8002005B05DF804FB00BF380C00203C
:10176C00D00C0020F0B585B00C468DF80F000A4E59
:10177C000A4D6427009701230DF10F02317828469A
:10178C0006F0E4F80097012322463178284606F04B
:10179C0099F9002005B0F0BD380C0020D00C0020C9
:1017AC0070B5044600252E462846FF2D08BFFF2E97
:1017BC0007D02688658829463046FFF7BBFF0434DE
:1017CC00F3E770BD08B508282AD8DFE800F0050952
:1017DC000D1115191D2125001348FFF7E1FF08BD58
:1017EC001248FFF7DDFFFAE71148FFF7D9FFF6E7DC
:1017FC001048FFF7D5FFF2E70F48FFF7D1FFEEE7F0
:10180C000E48FFF7CDFFEAE70D48FFF7C9FFE6E703
:10181C000C48FFF7C5FFE2E70B48FFF7C1FFDEE717
:10182C000348FFF7BDFFDAE7988E0008388F0008F1
:10183C00D88F00087890000818910008BC91000817
:10184C00B48C0008508D0008F48D000800B585B0EC
:10185C008DF80C0000128DF80D008DF80E1064231D
:10186C000093032303AA04490978044806F06EF890
:10187C00012005B05DF804FB380C0020D00C0020D2
:10188C0070B50446002528464FF6FF73FF2D08BFA0
:10189C009E4207D02688A57829463046FFF7D6FF0A
:1018AC000434F1E770BD0000F0B585B00C46030AB6
:1018BC008DF80C308DF80D00094E0A4D64270097F9
:1018CC00022303AA3178284606F040F8009701233A
:1018DC0022463178284606F0F5F8012005B0F0BD17
:1018EC00380C0020D00C002000B583B003380A2837
:1018FC0044D8DFE800F05F430606434343432B43E1
:10190C0006000121FF20FFF715FF80211220FFF7B1
:10191C0011FF594B1B78012B03D05848FFF740FFA0
:10192C002CE05748FFF73CFF5648FFF739FF564865
:10193C00FFF736FF0121FF20FFF7FCFE00211520E9
:10194C00FFF7F8FE5148FFF72BFF17E04A4B1B78C7
:10195C00012B16D0112143F20310FFF777FF8221E0
:10196C0043F20800FFF772FF4948FFF789FF494827
:10197C00FFF786FF02210320FFF7A8FE03B05DF8F6
:10198C0004FB112143F20310FFF760FF822143F2A5
:10199C000800FFF75BFF3E48FFF772FF3E48FFF77A
:1019AC006FFF3E48FFF76CFF042144F20740FFF73E
:1019BC004DFFDFE7802143F20800FFF747FF38486F
:1019CC00FFF75EFF2C4B1B78012B39D0212144F201
:1019DC004070FFF73BFF2A2145F21E00FFF736FF50
:1019EC00F82145F20200FFF731FF012145F21F00FB
:1019FC00FFF72CFF61214FF48640FFF727FF0DF115
:101A0C00070143F61800FFF74FFF9DF8071041F050
:101A1C00600143F61800FFF719FF0DF1070143F2BF
:101A2C002160FFF741FF9DF8071001F0DF0143F241
:101A3C002160FFF70BFF02210320FFF747FE9DE714
:101A4C001848FFF71DFF1848FFF71AFFA82143F6A7
:101A5C001800FFF7FBFE102143F22160FFF7F6FEA2
:101A6C00B02143F60100FFF7F1FE042144F20740D8
:101A7C00FFF7ECFEDFE700BF780000208095000840
:101A8C00849200088898000860920008D88F00089B
:101A9C00B0980008EC9D0008F49C0008849D000898
:101AAC00349F0008149E000854A8000870B512F466
:101ABC00804F43D00468B4F850309BB20D7803EBE0
:101ACC00C503023304EB4303B3F80044C4F3090425
:101ADC008B69A34228D31B1B8B618B697BB906686E
:101AEC0036F825309BB223F4804323F0700383F443
:101AFC00005343F4004343F0800326F8253012F0E2
:101B0C00400F0ED002680D7832F825309BB223F4CA
:101B1C00E04323F0700343F4004343F0C00322F886
:101B2C00253024B9204670BD00238B61D5E72346B0
:101B3C000A894969006801F009FFF3E70468B4F801
:101B4C0050309BB20D7803EBC503063304EB430313
:101B5C00B3F80044C4F309048B69A3422ED31B1BB6
:101B6C008B618B697BB9066836F825309BB223F400
:101B7C00804323F0700383F4005343F4004343F099
:101B8C00800326F8253012F0400F0ED102680D7834
:101B9C0032F825309BB223F4E04323F0700343F476
:101BAC00004343F0C00322F82530002CBAD0234662
:101BBC004A894969006801F0C9FEB3E700238B61CB
:101BCC00CFE7F0B587B000287FD0044690F8A93253
:101BDC00DBB1032384F8A932206800F01DFF2546F1
:101BEC0055F8107B6E460FCD0FC62B683360231D46
:101BFC000ECB384600F000FF054658B1022384F89E
:101C0C00A9320125284607B0F0BD80F8A832FFF7AD
:101C1C00EDFBDEE70021206800F008FF2B4619E001
:101C2C005A1C02EB820104EBC1010120487002EB4B
:101C3C00820104F8313003EB830104EBC101CB8644
:101C4C0002EB820604EBC6060020F0708863C863C2
:101C5C000864D3B261688B42E2D316E005EB8503CE
:101C6C0004EBC303002283F8692183F8685183F8DD
:101C7C006B21C3F87821C3F87C2105EB850304EBB9
:101C8C00C303C3F880210135EDB2A942E6D825463D
:101C9C0055F8107B6E460FCD0FC62B683360231D95
:101CAC000ECB384600F0C4FE054620B1022384F862
:101CBC00A9320125A6E7002384F82430012384F8F7
:101CCC00A932206801F0CEF99CE701259AE738B5D6
:101CDC0090F8A832012B11D00446012580F8A852A7
:101CEC00006800F090FE29462046FFF794FC20681F
:101CFC0001F0B6F9002084F8A80238BD0220FCE7F8
:101D0C0070B505460C46164612F0400F00F00D81DA
:101D1C000268B2F850309BB2097803EBC10302336E
:101D2C0002EB4303B3F80024C2F30902A369934204
:101D3C0052D99B1AA361A369002B6AD16378002B3B
:101D4C004DD12B68B3F8502092B2134403EB011120
:101D5C00B1F804349BB223F4F8439BB2A1F80434D9
:101D6C00B1F804346FEA43436FEA53439BB2A1F8D2
:101D7C0004342B686278002A3ED1B3F8502092B21A
:101D8C001344227803EB0213B3F80C2492B222F41E
:101D9C00F84292B2A3F80C24B3F80C246FEA424236
:101DAC006FEA524292B2A3F80C2421782846FFF72E
:101DBC0051FB16F4804F41D02A68217832F821303B
:101DCC009BB223F4E04323F0700343F4404343F00D
:101DDC00800322F8213031E00023A361ABE7012B13
:101DEC00C7D12B68B3F8502092B2134403EB011106
:101DFC000023A1F80434BCE7012AD6D1B3F8502053
:101E0C0092B21344227803EB02130022A3F80C24A1
:101E1C00CBE716F4804F0DD0286830F821309BB2F8
:101E2C0023F4E04323F0700343F4404343F0800376
:101E3C0020F8213094F82430012B12D02A68217814
:101E4C0032F821309BB223F4E04323F0400383F0BB
:101E5C00300343F4004343F0800322F82130002088
:101E6C0070BD636913446361E3691344E361216AE0
:101E7C00236999421FD3C91A21626278002A3FD183
:101E8C002A68B2F8501089B20A44217802EB011288
:101E9C00EBB9B2F8041489B221F4F84189B2A2F872
:101EAC000414B2F804146FEA41416FEA514189B24B
:101EBC00A2F8041426E021B9002384F82430134638
:101ECC00DBE7002384F8243023620B46D5E73E2B56
:101EDC0009D8590813F0010F00D00131890289B2D9
:101EEC00A2F804140EE0590913F01F0F00D10139A8
:101EFC006FEAC1616FEA514189B2A2F8041401E0A2
:101F0C00012A06D09BB222896169286801F0B2F8D7
:101F1C0094E72A68B2F8501089B20A44217802EB8F
:101F2C00011299B2A2F80414ECE70268B2F850302E
:101F3C009BB2097803EBC103063302EB4303B3F8FE
:101F4C000024C2F30902A369934253D39B1AA361E1
:101F5C00A369002B6BD16378002B4ED12B68B3F89F
:101F6C00502092B2134403EB0111B1F804349BB22C
:101F7C0023F4F8439BB2A1F80434B1F804346FEAAB
:101F8C0043436FEA53439BB2A1F804342B68627845
:101F9C00002A3FD1B3F8502092B21344227803EBBD
:101FAC000213B3F80C2492B222F4F84292B2A3F8C2
:101FBC000C24B3F80C246FEA42426FEA524292B2FC
:101FCC00A3F80C2421782846FFF744FA16F4804F26
:101FDC007FF434AF2A68217832F821309BB223F495
:101FEC00E04323F0700343F4404343F0800322F8B2
:101FFC00213023E70023A361AAE7012BC6D12B686C
:10200C00B3F8502092B2134403EB01110023A1F852
:10201C000434BBE7012AD5D1B3F8502092B2134453
:10202C00227803EB02130022A3F80C24CAE716F45F
:10203C00804F0DD1286830F821309BB223F4E04357
:10204C0023F0700343F4404343F0800320F8213025
:10205C0094F82430012B7FF4F1AE6369134463616F
:10206C00E3691344E361216A236999421FD3C91AB6
:10207C0021622A68617800293ED1B2F8501089B2E9
:10208C000A44217802EB0112EBB9B2F80C1489B2B4
:10209C0021F4F84189B2A2F80C14B2F80C146FEACE
:1020AC0041416FEA514189B2A2F80C1426E021B9E2
:1020BC00002384F824301346DBE70023236284F8E2
:1020CC0024300B46D5E73E2B09D8590813F0010FE5
:1020DC0000D00131890289B2A2F80C140EE0590922
:1020EC0013F01F0F00D101396FEAC1616FEA514142
:1020FC0089B2A2F80C1401E0012906D09BB26289C6
:10210C006169286800F0B6FF98E6B2F8501089B201
:10211C000A44217802EB011299B2A2F80C14EDE7F3
:10212C002DE9F04105462868B0F8443013F4004F0F
:10213C0000F01382B0F84440A3B214F00F0440F046
:10214C00D88013F0100F61D003889AB213F4006F8B
:10215C0040F0938012F4004FE5D0038823F0700315
:10216C001B051B0D43F0800303802868B0F850302A
:10217C009BB295F8682103EBC203063300EB4303D3
:10218C00B3F80034C3F30903C5F884318BB1D5F827
:10219C007C1171B1B5F86E2101F0D8FBD5F8842112
:1021AC00D5F87C311344C5F87C3100212846FFF763
:1021BC0045F92B681A8812F4006FB4D1B3F850208B
:1021CC0092B21344D5F87821002A79D1B3F80C24B3
:1021DC0092B222F4F84292B2A3F80C24B3F80C2475
:1021EC006FEA42426FEA524292B2A3F80C242A6878
:1021FC0013889BB223F4804323F0700383F4405381
:10220C0043F4004343F0800313808CE703889BB2B4
:10221C0023F4E14323F070036FEA43436FEA534323
:10222C009BB203802A68B2F850309BB295F8281004
:10223C0003EBC103023302EB4303B3F80034C3F3E3
:10224C0009036B64EA6B1344EB6300212846FFF728
:10225C0001F995F82430002B3FF465AF2B6C002B63
:10226C007FF461AF95F824302A6843F08003A2F81C
:10227C004C30002385F8243055E7B0F850309BB231
:10228C0095F8682103EBC203063300EB4303B3F864
:10229C000034C3F30903C5F88431B5F86E2105F594
:1022AC002C7101F053FB2A68138823F070031B0573
:1022BC001B0D43F0800313802846FFF7B7F832E775
:1022CC003E2A09D8510812F0010F00D001318A02C0
:1022DC0092B2A3F80C248AE7510912F01F0F00D117
:1022EC0001396FEAC1626FEA524292B2A3F80C2430
:1022FC007DE730F824309EB213F4004F53D116F022
:10230C00800F3FF410AF621C02EB820105EBC101A0
:10231C00286830F824309BB223F4E14323F0700397
:10232C006FEA43436FEA53439BB220F82430CB78D7
:10233C00032B07D033B1022B40F00A8116F4807FB7
:10234C0040F006812868B0F850309BB2621C02EB5A
:10235C00820215F8322003EBC203023300EB430375
:10236C00B3F80034C3F3090304EB840205EBC20297
:10237C00126C9A4240F2D88004EB840605EBC60638
:10238C00D21A326404EB840205EBC202126C002AEE
:10239C0040F0D180013404EB840415F83410284645
:1023AC00FFF758F8BFE630F8243023F070031B0514
:1023BC001B0D43F0800320F8243004EB8401C9008A
:1023CC0001F5B47105EB010804EB840305EBC303C1
:1023DC0093F87431002B42D12868B0F850309BB27E
:1023EC0004EB840205EBC20292F8682103EBC203F2
:1023FC00063300EB4303B3F80074C7F3090717BBAC
:10240C0004EB840305EBC303D3F884213A44C3F8EB
:10241C008421D3F87C213A44C3F87C21D3F8803151
:10242C003BB104EB840305EBC303D3F878319F4233
:10243C0075D204EB840305EBC30393F868112846AB
:10244C00FEF7FCFF5BE704EB840105EBC1013B46A7
:10245C00B1F86E21D1F87C1101F078FAD0E704EBD9
:10246C00840305EBC30393F86B31022B35D0296839
:10247C0004EB840205EBC20292F8680131F82030BB
:10248C009BB223F4E04323F0700343F4004343F086
:10249C00C00321F82030286892F8682130F82230E7
:1024AC0013F4804F20D0B0F850309BB203EBC20332
:1024BC00023300EB4303B3F80074C7F30907002F92
:1024CC009ED004EB840105EBC1013B46B1F87021B1
:1024DC00D1F87C1101F03AFA92E73246414628468F
:1024EC00FFF7E4FA07468BE7B0F850309BB203EBEA
:1024FC00C203063300EB4303B3F80074C7F30907B8
:10250C00002F3FF47DAF04EB840105EBC1013B468A
:10251C00B1F87221D1F87C1101F018FA70E741463C
:10252C00286800F0BAFDEAE604EB840205EBC2026F
:10253C000026166426E704EB840205EBC202D66B78
:10254C001E44D663546C2344536400F0A6FDEAE5A4
:10255C0032462846FFF7D4FBE5E50020BDE8F081C4
:10256C0090F8A832012B0DD010B50446012380F849
:10257C00A83280F82410006800F06CFD002084F86C
:10258C00A80210BD0220704710B584B00446006844
:10259C0000F06AFD10F4004F32D1206800F064FDA9
:1025AC0010F4806F30D1206800F05EFD10F4804F85
:1025BC0008D02268B2F844309BB223F480439BB21B
:1025CC00A2F84430206800F04FFD10F4005F08D0F2
:1025DC002268B2F844309BB223F400539BB2A2F8A9
:1025EC004430206800F040FD10F4805F1DD120685D
:1025FC0000F03AFD10F4006F00F08B8000233DE0FA
:10260C002046FFF78DFDC8E72268B2F844309BB234
:10261C0023F480639BB2A2F844302046FEF72BFFD4
:10262C0000212046FFF79CFFBDE72268B2F840303E
:10263C009BB223F004039BB2A2F840302268B2F89C
:10264C0040309BB223F008039BB2A2F840302046E6
:10265C00FEF734FF2268B2F844309BB223F4805367
:10266C009BB2A2F84430C2E7226832F8231004AAC5
:10267C0002EB430222F8101C0133DBB2072BF3D917
:10268C002268B2F840309BB243F00103A2F840300C
:10269C002268B2F840309BB223F001039BB2A2F83F
:1026AC0040302368B3F8442012F4806FF9D0B3F8AB
:1026BC00442092B222F4806292B2A3F84420002308
:1026CC0009E0226804A901EB430131F8101C22F83F
:1026DC0023100133DBB2072BF3D92268B2F8403058
:1026EC009BB243F00803A2F840302268B2F84430A1
:1026FC009BB223F400639BB2A2F844302268B2F878
:10270C0040309BB243F00403A2F840302046FEF761
:10271C00C5FE206800F0A8FC10F4007F10D12068E2
:10272C0000F0A2FC10F4807F08D02268B2F844308C
:10273C009BB223F480739BB2A2F8443004B010BD5A
:10274C002268B2F844309BB223F400739BB2A2F817
:10275C0044302046FEF789FEE1E770B505460C468D
:10276C0011F0800F26D101F0070000EB8001C900A9
:10277C0001F5B476A91900EB800005EBC00000262A
:10278C0080F8696104F007040C700A61CB704A7818
:10279C0002B1CC81022B17D095F8A832012B16D0A0
:1027AC00012385F8A832286800F055F9002085F837
:1027BC00A80270BD01F00700013000EB800105EBB1
:1027CC00C10101264E70DDE700230B71E4E7022006
:1027DC00EFE710B504460B4611F0800F1FD101F046
:1027EC00070202EB8201C90001F5B471014402EB4E
:1027FC00820200EBC202002082F8690103F0070399
:10280C000B7094F8A832012B13D0012384F8A83252
:10281C00206800F0BFFA002084F8A80210BD01F077
:10282C000702013202EB820100EBC101012048706A
:10283C00E4E70220F2E738B501F0070404EB840169
:10284C00C90001F5B471014404EB840500EBC50526
:10285C00C5F87C21C5F880310023C5F8843185F892
:10286C00693185F8684124B9006800F016FC002035
:10287C0038BD006800F011FCF9E701F0070101EB2D
:10288C00810100EBC101D1F88401704770B501F0F2
:10289C0007056C1C04EB840100EBC10105EB8506FC
:1028AC0000EBC606F2633364012286F84C20B36455
:1028BC00002373644A7004EB840400F8345025B987
:1028CC00006800F0EAFB002070BD006800F0E5FB3A
:1028DC00F9E738B501F007054268954231D804464E
:1028EC000B4611F0800F1ED101EB8101C90001F5DF
:1028FC00B471014403EB830300EBC303002283F8A0
:10290C00692101238B700D7094F8A832012B1AD019
:10291C00012384F8A832206800F026FB5DB100206A
:10292C0084F8A80238BD6B1C03EB830100EBC101DA
:10293C0001224A70E5E704F52C71206800F098FB41
:10294C00EDE70120EEE70220ECE70B4601F00F016A
:10295C004268914230D810B5044613F0800F21D153
:10296C0003F0070202EB8201C90001F5B4710144C6
:10297C0002EB820200EBC202002082F86901002205
:10298C008A7003F007030B7094F8A832012B15D052
:10299C00012384F8A832206800F00BFB002084F897
:1029AC00A80210BD03F00702013202EB820100EB1A
:1029BC00C10101204870E2E7012070470220F0E7D6
:1029CC0011F0800F0BD001F00701013101EB8101F7
:1029DC0000EBC10152B90A73CB800020704701EBA8
:1029EC008101C90001F5B4710144F3E701220A73B6
:1029FC000B811B0C4B81F0E784B001A880E80E0022
:102A0C00002004B0704703460020A3F844004FF4A4
:102A1C003F42A3F840207047B0F8403023F47C5379
:102A2C005B045B0CA0F8403000207047002070471E
:102A3C0084B010B4044602A880E80E000123A4F868
:102A4C0040300020A4F84000A4F84400A4F8500042
:102A5C0010BC04B0704730B403460C7830F8242016
:102A6C0092B222F4EC4222F0700292B2C87803289F
:102A7C005AD8DFE800F04E550251002048F280058C
:102A8C002A4323F824200C7833F8242092B222F421
:102A9C00E04222F0700222432A4323F824200A7BCE
:102AAC00002A40F0B6804A78002A4ED0B3F8502065
:102ABC0092B21A440C7802EB0412CC8864086400BD
:102ACC00A2F800440C7833F8242012F0400F0CD0FC
:102ADC0033F8242092B222F4E04222F0700242F445
:102AEC00004242F0C00223F82420CA78012A1DD0EB
:102AFC00097833F8212092B222F4E04222F040020D
:102B0C0082F0200242F4004242F0800223F821209D
:102B1C0064E042F40072B1E742F4C0620020ADE719
:102B2C0042F480620020A9E70120A7E7097833F876
:102B3C00212092B222F4E04222F0400242F4004200
:102B4C0042F0800223F8212048E0B3F8502092B2E2
:102B5C001A440C7802EB0412CC8864086400A2F8C6
:102B6C000844B3F8502092B21A440C7802EB0412C9
:102B7C000C69ACBBB2F80C44A4B224F4F844A4B273
:102B8C00A2F80C44B2F80C446FEA44446FEA544483
:102B9C00A4B2A2F80C440C7833F8242012F4804F21
:102BAC000CD033F8242092B222F4E04222F07002CE
:102BBC0042F4404242F0800223F82420097833F892
:102BCC00212092B222F4804222F0700282F4405210
:102BDC0042F4004242F0800223F8212030BC7047BE
:102BEC003E2C09D8650814F0010F00D00135AD0258
:102BFC00ADB2A2F80C54CEE7650914F01F0F00D14A
:102C0C00013D6FEAC5646FEA5444A4B2A2F80C44C7
:102C1C00C1E70C7833F8242092B222F4E04222F07F
:102C2C00700242F4014242F0800223F82420B3F8EF
:102C3C00502092B21A440C7802EB04120C896408EE
:102C4C006400A2F80044B3F8502092B21A440C78F5
:102C5C0002EB04124C8964086400A2F808444A7818
:102C6C00002A40D10C7833F8242012F4804F0CD079
:102C7C0033F8242092B222F4E04222F0700242F4A3
:102C8C00404242F0800223F824200C7833F82420B0
:102C9C0012F0400F0CD033F8242092B222F4E04210
:102CAC0022F0700242F4004242F0C00223F82420C9
:102CBC000D7833F8252092B222F4804222F0700273
:102CCC0082F4405248F28004224323F825200978EC
:102CDC0033F8212092B222F4E04222F04002224347
:102CEC0023F821207AE70C7833F8242012F4804F53
:102CFC000CD033F8242092B222F4E04222F070027D
:102D0C0042F4404242F0800223F824200C7833F83D
:102D1C00242012F0400F0CD033F8242092B222F46D
:102D2C00E04222F0700242F4004242F0C00223F86A
:102D3C002420CA78012A1ED00C7833F8242092B2B1
:102D4C0022F4E04222F0400282F0200242F40042DF
:102D5C0042F0800223F82420097833F8212092B223
:102D6C0022F4804222F0700242F4004242F08002CF
:102D7C0023F8212032E70C7833F8242092B222F485
:102D8C00E04222F0400242F4004242F0800223F87A
:102D9C002420E1E70B7B002B46D14B7813B30A7848
:102DAC0030F8223013F0400F0CD030F822309BB2A8
:102DBC0023F4E04323F0700343F4004343F0C003D7
:102DCC0020F822300A7830F822309BB223F4E0430A
:102DDC0023F0400343F4004343F0800320F82230F7
:102DEC00002070470A7830F8223013F4804F0CD052
:102DFC0030F822309BB223F4E04323F0700343F409
:102E0C00404343F0800320F822300A7830F8223017
:102E1C009BB223F4804323F0700343F4004343F04C
:102E2C00800320F82230DBE710B44B78002B4ED116
:102E3C000A7830F8223013F4804F0CD030F822305E
:102E4C009BB223F4E04323F0700343F4404343F07C
:102E5C00800320F822300A7830F8223013F0400F2B
:102E6C000CD030F822309BB223F4E04323F07003F3
:102E7C0043F4004343F0C00320F822300A7830F8C2
:102E8C0022309BB223F4E04323F0700343F400435D
:102E9C0043F0C00320F822300B7830F8232092B294
:102EAC0022F4804222F0700248F28004224320F87F
:102EBC0023200A7830F822309BB223F4E04323F02D
:102ECC004003234320F82230002010BC70470A78BE
:102EDC0030F8223013F4804F0CD030F822309BB2F3
:102EEC0023F4E04323F0700343F4404343F08003A6
:102EFC0020F822300A7830F8223013F0400F0CD032
:102F0C0030F822309BB223F4E04323F0700343F4F7
:102F1C00004343F0C00320F822300A7830F8223006
:102F2C009BB223F4E04323F0700343F4404343F09B
:102F3C00800320F822300B7830F8232092B222F450
:102F4C00E04222F0400248F28004224320F8232081
:102F5C000A7830F822309BB223F4804323F07003BC
:102F6C00234320F82230AFE74B788BB10A7830F846
:102F7C0022309BB223F4E04323F0400383F0100390
:102F8C0043F4004343F0800320F8223000207047C4
:102F9C000A7830F822309BB223F4804323F070037C
:102FAC0083F4805343F4004343F0800320F8223031
:102FBC00ECE70B7B002B4BD14B7833B30A7830F812
:102FCC00223013F0400F0CD030F822309BB223F497
:102FDC00E04323F0700343F4004343F0C00320F8B4
:102FEC002230CB78012B33D00A7830F822309BB2C8
:102FFC0023F4E04323F0400383F0200343F4004325
:10300C0043F0800320F8223022E00A7830F8223096
:10301C0013F4804F0CD030F822309BB223F4E043F1
:10302C0023F0700343F4404343F0800320F8223034
:10303C000A7830F822309BB223F4804323F07003DB
:10304C0083F4405343F4004343F0800320F82230D0
:10305C000020704711B98023A0F84C300020704735
:10306C000020704700207047B0F8440080B27047D1
:10307C000020704710B45C1C640800EB420202F59F
:10308C00806244B10B78487843EA002322F8043B71
:10309C000231013CF5E710BC704770B505460C4693
:1030AC004B78012B37D00A7B002A40F026838B69A2
:1030BC000A69934240F204839B1A8B61B5F8503035
:1030CC009BB22B44217803EB0113002A40F0FC82C5
:1030DC00B3F80C2492B222F4F84292B2A3F80C2466
:1030EC00B3F80C246FEA42426FEA524292B2A3F850
:1030FC000C24227835F822309BB223F4804323F041
:10310C00700383F4405343F4004343F0800325F8E9
:10311C002230002070BD8E690A69964200D916468D
:10312C00237B002B39D0E378022B58D0227835F84A
:10313C0022309BB223F4E04323F0700343F40143A9
:10314C0043F0800325F82230236A9B1B23622378EB
:10315C0035F8232012F0400F00F026826278002A06
:10316C0040F0CA81B5F8502092B22A4402EB031306
:10317C00002E40F0A881B3F80C2492B222F4F8424D
:10318C0092B2A3F80C24B3F80C246FEA42426FEA13
:10319C00524292B2A3F80C24B0E1B6B23346E288A4
:1031AC0061692846FFF766FFB5F850309BB22B4497
:1031BC00227803EB0213A3F80464227835F822304A
:1031CC009BB223F4E04323F0400383F0300343F439
:1031DC00004343F0800325F8223000209AE7236A4D
:1031EC009A4280F05281227835F822309BB223F437
:1031FC00E04323F0700343F4014343F0800325F8CC
:10320C002230236A9B1B2362237835F8232012F08B
:10321C00400F00F09D8062788ABBB5F8502092B2C6
:10322C002A4402EB03138EB9B3F80C2492B222F4A5
:10323C00F84292B2A3F80C24B3F80C246FEA424281
:10324C006FEA524292B2A3F80C241AE03E2E09D82F
:10325C00720816F0010F00D00132920292B2A3F85C
:10326C000C240EE0720916F01F0F00D1013A6FEA20
:10327C00C2626FEA524292B2A3F80C2401E0012A16
:10328C002BD0B3B2628961692846FFF7F3FE6369FC
:10329C0033446361236A2269934228D99B1B2362BE
:1032AC006378002B40D1B5F850309BB22B44227878
:1032BC0003EB0213FEB9B3F8042492B222F4F842E1
:1032CC0092B2A3F80424B3F804246FEA42426FEAE2
:1032DC00524292B2A3F8042428E0B5F8502092B2DE
:1032EC002A4402EB0313B2B2A3F80C24C9E7002260
:1032FC0022621E46D4E73E2E09D8720816F0010F42
:10330C0000D00132920292B2A3F804240EE07209AA
:10331C0016F01F0F00D1013A6FEAC2626FEA5242F7
:10332C0092B2A3F8042401E0012B06D0B3B2228997
:10333C0061692846FFF79EFE3FE7B5F850309BB217
:10334C002B44227803EB0213B2B2A3F80424EDE76A
:10335C0062788ABBB5F8502092B22A4402EB031370
:10336C008EB9B3F8042492B222F4F84292B2A3F8C4
:10337C000424B3F804246FEA42426FEA524292B238
:10338C00A3F804241AE03E2E09D8720816F0010F97
:10339C0000D00132920292B2A3F804240EE072091A
:1033AC0016F01F0F00D1013A6FEAC2626FEA524267
:1033BC0092B2A3F8042401E0012A2BD0B3B22289E3
:1033CC0061692846FFF756FE636933446361236ADB
:1033DC002269934228D99B1B23626378002B40D12E
:1033EC00B5F850309BB22B44227803EB0213FEB994
:1033FC00B3F80C2492B222F4F84292B2A3F80C2443
:10340C00B3F80C246FEA42426FEA524292B2A3F82C
:10341C000C2428E0B5F8502092B22A4402EB031396
:10342C00B2B2A3F80424C9E7002222621E46D4E7F4
:10343C003E2E09D8720816F0010F00D0013292020C
:10344C0092B2A3F80C240EE0720916F01F0F00D1F3
:10345C00013A6FEAC2626FEA524292B2A3F80C24AC
:10346C0001E0012B06D0B3B2628961692846FFF7EF
:10347C0001FEA2E6B5F850309BB22B44227803EB48
:10348C000213B2B2A3F80C24EDE7217835F8212011
:10349C0092B222F4E24222F0700242F4004242F074
:1034AC00800225F82120B5F8502092B22A442178C8
:1034BC0002EB01129BB2A2F80434228961692846FE
:1034CC00FFF7D8FD79E63E2E09D8720816F0010FE9
:1034DC0000D00132920292B2A3F80C240EE07209D1
:1034EC0016F01F0F00D1013A6FEAC2626FEA524226
:1034FC0092B2A3F80C2401E0012A26D0B3B262895F
:10350C0061692846FFF7B6FD636933446361236A3A
:10351C002269934223D99B1B2362002E3FF44DAEAC
:10352C0063786BBBB5F850309BB22B44227803EB1D
:10353C0002133E2E17D8720816F0010F00D001327C
:10354C00920292B2A3F804241CE0B5F8502092B277
:10355C002A4402EB0313B2B2A3F80C24CEE70022E8
:10356C0022621E46D9E7720916F01F0F00D1013AEC
:10357C006FEAC2626FEA524292B2A3F8042401E0ED
:10358C00012B06D0B3B2228961692846FFF772FD80
:10359C0013E6B5F850309BB22B44227803EB0213A0
:1035AC00B2B2A3F80424EDE762788ABBB5F85020D8
:1035BC0092B22A4402EB03138EB9B3F8042492B2EC
:1035CC0022F4F84292B2A3F80424B3F804246FEA6C
:1035DC0042426FEA524292B2A3F804241AE03E2E01
:1035EC0009D8720816F0010F00D00132920292B283
:1035FC00A3F804240EE0720916F01F0F00D1013A53
:10360C006FEAC2626FEA524292B2A3F8042401E05C
:10361C00012A26D0B3B2228961692846FFF72AFD18
:10362C00636933446361236A2269934223D99B1BE8
:10363C002362002E3FF4C1AD63786BBBB5F85030FC
:10364C009BB22B44227803EB02133E2E17D8720840
:10365C0016F0010F00D00132920292B2A3F80C24A2
:10366C001CE0B5F8502092B22A4402EB0313B2B21C
:10367C00A3F80424CEE7002222621E46D9E7720981
:10368C0016F01F0F00D1013A6FEAC2626FEA524284
:10369C0092B2A3F80C2401E0012B06D0B3B26289DC
:1036AC0061692846FFF7E6FC87E5B5F850309BB218
:1036BC002B44227803EB0213B2B2A3F80C24EDE7EF
:1036CC0000228A611A46F9E43E2A09D8510812F000
:1036DC00010F00D00131890289B2A3F80C1408E55E
:1036EC00510912F01F0F00D101396FEAC1616FEA65
:1036FC00514189B2A3F80C14FBE4CA78022A45D0D4
:10370C00012A40F0208189692269914240F2D480DB
:10371C00891AA161D3B9B5F850309BB22B442178EA
:10372C0003EB0113002A40F0CB80B3F8041489B2E8
:10373C0021F4F84189B2A3F80414B3F804146FEA25
:10374C0041416FEA514189B2A3F804146378002B0C
:10375C0040F0EA80B5F850309BB22B44217803EB53
:10376C000113002A40F0C580B3F80C2492B222F465
:10377C00F84292B2A3F80C24B3F80C246FEA42423C
:10378C006FEA524292B2A3F80C24B2E4CBB9B0F86F
:10379C0050309BB203440A7803EB02130A6972BBE4
:1037AC00B3F8042492B222F4F84292B2A3F804249F
:1037BC00B3F804246FEA42426FEA524292B2A3F881
:1037CC0004246378002B4CD1B5F850309BB22B44B9
:1037DC00227803EB0213226952BBB3F80C2492B289
:1037EC0022F4F84292B2A3F80C24B3F80C246FEA3A
:1037FC0042426FEA524292B2A3F80C2433E03E2AC2
:10380C0009D8510812F0010F00D001318A0292B28E
:10381C00A3F80424D5E7510912F01F0F00D1013988
:10382C006FEAC1626FEA524292B2A3F80424C8E76D
:10383C003E2A09D8510812F0010F00D001318A023A
:10384C0092B2A3F80C240EE0510912F01F0F00D114
:10385C0001396FEAC1626FEA524292B2A3F80C24AA
:10386C0001E0012B1DD0E369002B3FF442AC227820
:10387C0035F8221044F2400303EA01008B4302D0D6
:10388C0000287FF436AC35F822309BB223F4E043A9
:10389C0023F0700343F4004343F0C00325F82230B7
:1038AC0027E4B5F850309BB22B44227803EB02137B
:1038BC00228AA3F80C24D6E70022A2610A4629E743
:1038CC003E2A09D8510812F0010F00D001318902AB
:1038DC0089B2A3F8041439E7510912F01F0F00D173
:1038EC0001396FEAC1616FEA514189B2A3F804143E
:1038FC002CE73E2A0AD8510812F0010F00D00131F2
:10390C008A0292B2A3F80C24FFF7F3BB510912F010
:10391C001F0F00D101396FEAC1626FEA524292B2B5
:10392C00A3F80C24FFF7E5BB012B7FF4E2ABB5F851
:10393C0050309BB22B44217803EB011392B2A3F8C5
:10394C000C24FFF7D6BB0120FFF7E4BB10B45C08D6
:10395C0000EB420000F5806044B130F8042B0A7093
:10396C00C2F307224A700231013CF5E713F0010F54
:10397C0001D003880B7010BC7047000010B50446D2
:10398C000E4B18784FF47A73B3FBF0F30C4A1068B3
:10399C00B0FBF3F000F07EFD68B90F2C01D90120CB
:1039AC000AE0002221464FF0FF3000F031FD054BBC
:1039BC001C60002000E0012010BD00BF7900002039
:1039CC00800000207C00002008B5074A136843F0F3
:1039DC0010031360032000F009FD0F20FFF7CEFF4A
:1039EC00FCF782FF002008BD00200240034A11684A
:1039FC00034B1B780B441360704700BFF42100206D
:103A0C0079000020014B1868704700BFF42100209A
:103A1C0038B50446FFF7F6FF0546B4F1FF3F02D078
:103A2C00044B1B781C44FFF7EDFF401BA042FAD35C
:103A3C0038BD00BF7900002082B0084B1B68084AD3
:103A4C00A2FB03235B0A00FB03F3019300BF019B62
:103A5C005A1E0192002BF9D102B070478000002051
:103A6C00D34D6210002800F0F18170B582B004468D
:103A7C00036813F0010F2CD0AA4B5B6803F00C0306
:103A8C00042B1DD0A74B5B6803F00C03082B12D042
:103A9C006368B3F5803F41D0002B55D103F18043CF
:103AAC0003F504331A6822F480321A601A6822F47F
:103ABC0080221A6037E09B4B5B6813F4803FE7D0A1
:103ACC00984B1B6813F4003F03D06368002B00F085
:103ADC00BF81236813F0020F75D0924B5B6813F013
:103AEC000C0F5FD08F4B5B6803F00C03082B54D08A
:103AFC002369002B00F089808B4B01221A60FFF7A1
:103B0C0081FF0546874B1B6813F0020F74D1FFF73A
:103B1C0079FF401B0228F5D903209EE1814A1368E6
:103B2C0043F480331360636843B3FFF76BFF0546C0
:103B3C007C4B1B6813F4003FCBD1FFF763FF401B9A
:103B4C006428F5D9032088E1B3F5A02F09D0754B73
:103B5C001A6822F480321A601A6822F480221A60E1
:103B6C00E1E703F18043A3F53C331A6842F4802269
:103B7C001A601A6842F480321A60D4E7FFF742FFE9
:103B8C000546684B1B6813F4003FA2D0FFF73AFFC1
:103B9C00401B6428F5D903205FE1624B5B6813F48A
:103BAC00803FA5D15F4B1B6813F0020F03D0236934
:103BBC00012B40F04F815B4A136823F0F8036169D5
:103BCC0043EAC1031360236813F0080F32D0A369D2
:103BDC00002B45D0554B01221A60FFF713FF054609
:103BEC00504B5B6A13F0020F21D1FFF70BFF401B08
:103BFC000228F5D9032030E14A4A136823F0F80370
:103C0C00616943EAC1031360DDE7474B00221A6088
:103C1C00FFF7F8FE0546434B1B6813F0020FD2D09A
:103C2C00FFF7F0FE401B0228F5D9032015E1012017
:103C3C00FFF702FF236813F0040F00F09780394B55
:103C4C00DB6913F0805F1DD1364BDA6942F080528C
:103C5C00DA61DB6903F080530193019B012512E0CB
:103C6C00324B00221A60FFF7CDFE05462D4B5B6AE6
:103C7C0013F0020FDED0FFF7C5FE401B0228F5D96A
:103C8C000320EAE000252A4B1B6813F4807F11D037
:103C9C00E368012B22D0002B38D103F1804303F5CC
:103CAC0004331A6A22F001021A621A6A22F0040220
:103CBC001A6218E01E4A136843F480731360FFF70E
:103CCC00A1FE06461A4B1B6813F4807FE0D1FFF768
:103CDC0099FE801B6428F5D90320BEE0114A136AB3
:103CEC0043F001031362E36873B3FFF78BFE0646E0
:103CFC000C4B1B6A13F0020F37D1FFF783FE801BAE
:103D0C0041F288339842F3D90320A6E0052B11D059
:103D1C00044B1A6A22F001021A621A6A22F0040297
:103D2C001A62E0E700100240000042428004424266
:103D3C00007000404D4B1A6A42F004021A621A6A73
:103D4C0042F001021A62CEE7FFF75CFE0646474BD3
:103D5C001B6A13F0020F08D0FFF754FE801B41F2D0
:103D6C0088339842F3D9032077E0E5B9E369002B57
:103D7C0072D03E4A526802F00C02082A56D0022B2E
:103D8C0017D03B4B00221A60FFF73CFE0446374B22
:103D9C001B6813F0007F47D0FFF734FE001B02288E
:103DAC00F5D9032059E0314AD36923F08053D3610C
:103DBC00DCE72F4B00221A60FFF724FE05462B4B45
:103DCC001B6813F0007F06D0FFF71CFE401B022877
:103DDC00F5D9032041E0236AB3F5803F1AD023497B
:103DEC004B6823F47413226A606A024313434B60DA
:103DFC001F4B01221A60FFF705FE04461B4B1B6884
:103E0C0013F0007F0ED1FFF7FDFD001B0228F5D942
:103E1C00032022E0154A536823F40033A1680B43B6
:103E2C005360DCE7002018E0002016E0012B16D0D0
:103E3C000E4B5B6803F48031226A914211D103F47A
:103E4C007013626A93420ED1002006E00120704785
:103E5C00012002E0012000E0002002B070BD012032
:103E6C00FBE70120F9E70120F7E700BF0010024053
:103E7C006000424286B0164B0FCB0DF1180C0CE9CA
:103E8C000F0040F20123ADF80430124B5B6803F0D5
:103E9C000C02082A02D0104806B07047C3F38342C4
:103EAC00624412F8102C13F4803F0CD0094B5B6861
:103EBC00C3F34043634413F8143C074800FB02F07F
:103ECC00B0FBF3F0E8E7054800FB02F0E4E700BFC5
:103EDC00C0A800080010024000127A0000093D0042
:103EEC00002800F0A08070B50D460446524B1B68AC
:103EFC0003F007038B420BD24F4A136823F00703DE
:103F0C000B431360136803F007038B4240F08D8062
:103F1C00236813F0020F17D013F0040F04D0474A94
:103F2C00536843F4E0635360236813F0080F04D024
:103F3C00424A536843F460535360404A536823F039
:103F4C00F003A1680B435360236813F0010F31D0C9
:103F5C006368012B20D0022B25D0384A126812F04E
:103F6C00020F64D035494A6822F0030213434B60B8
:103F7C00FFF748FD0646314B5B6803F00C036268A3
:103F8C00B3EB820F16D0FFF73DFD801B41F2883357
:103F9C009842F0D9032045E0284A126812F4003FF9
:103FAC00E0D101203EE0254A126812F0007FD9D101
:103FBC00012037E0204B1B6803F00703AB420AD902
:103FCC001D4A136823F007032B431360136803F097
:103FDC000703AB422DD1236813F0040F06D0174A08
:103FEC00536823F4E063E1680B435360236813F0D8
:103FFC00080F07D0114A536823F46053216943EA30
:10400C00C1035360FFF736FF0C4B5B68C3F303131C
:10401C000B4AD35CD8400B4B18600B4B1868FFF75E
:10402C00ADFC002070BD012070470120FAE7012093
:10403C00F8E70120F6E700BF002002400010024024
:10404C00D4A80008800000207C000020014B1868D8
:10405C00704700BF8000002008B5FFF7F7FF044B46
:10406C005B68C3F30223034AD35CD84008BD00BF8E
:10407C0000100240E4A8000808B5FFF7E7FF044B66
:10408C005B68C3F3C223034AD35CD84008BD00BFAE
:10409C0000100240E4A8000870B582B00446036822
:1040AC0013F0010F34D03E4BDB6913F0805F47D126
:1040BC003B4BDA6942F08052DA61DB6903F08053E2
:1040CC000193019B0125374B1B6813F4807F39D07A
:1040DC00334B1B6A13F4407311D0626802F44072C4
:1040EC009A420CD02E4A136A23F440702E490126B2
:1040FC000E6000260E60106213F0010F36D1284AB4
:10410C00136A23F4407361680B431362002D3ED194
:10411C00236813F0020F06D0214A536823F440435E
:10412C00A1680B435360236813F0100F34D01C4A62
:10413C00536823F48003E1680B43536000202CE0A8
:10414C000025C0E7174A136843F480731360FFF728
:10415C0059FC0646134B1B6813F4807FB8D1FFF74C
:10416C0051FC801B6428F5D9032016E0FFF74AFCAC
:10417C0006460B4B1B6A13F0020FC0D1FFF742FC33
:10418C00801B41F288339842F3D9032005E0D369B0
:10419C0023F08053D361BBE7002002B070BD00BF99
:1041AC00001002400070004040044242F0B482B063
:1041BC0000252C46A3E07F4FBB4210D007D97E4F81
:1041CC00BB420CD007F58037BB4208D013E0A7F5F3
:1041DC008017BB4203D007F57027BB4207D18B6811
:1041EC00002B58D0012B51D04261082503E0A7F5D4
:1041FC008017BB42F3D0FF2E4FD88446FF2E4FD8EA
:10420C00A200DCF800300F27974023EA070305FAD9
:10421C0002F21343CCF800304B6813F0805F6DD082
:10422C00664B9A6942F001029A619B6903F00103A3
:10423C000193019BA208971C614B53F8273004F0A3
:10424C000307BF004FF00F0C0CFA07FC23EA0C0C11
:10425C005C4B98422AD003F58063984200F08A8028
:10426C0003F58063984200F0878003F580639842E1
:10427C001AD004231BE0CD68BDE7CD680435BAE73E
:10428C00CD680835B7E7CD680C35B4E70261082571
:10429C00B1E70025AFE70425ADE700F1040CADE76D
:1042AC00A4F108029200ACE7032300E00023BB401A
:1042BC0043EA0C030232424F47F822304B6813F4A6
:1042CC00803F5BD0404A1368334313604B6813F450
:1042DC00003F59D03C4A5368334353604B6813F446
:1042EC00801F57D0384A9368334393604B6813F45C
:1042FC00001F55D0344AD3681E43D66001340B6876
:10430C0033FA04F252D00122A24003EA020632EA46
:10431C000303F3D14B68122B3FF64DAF122B3FF634
:10432C006AAF01A757F823F0EB410008834200085D
:10433C008D4200089F420008034200080342000817
:10434C00034200080342000803420008034200082D
:10435C00034200080342000803420008034200081D
:10436C000342000803420008034200088742000889
:10437C009342000801239AE7022398E7124A136834
:10438C0023EA06031360A1E70F4A536823EA0603E6
:10439C005360A3E70C4A936823EA06039360A5E7EE
:1043AC00094AD36823EA0606D660A7E702B0F0BC38
:1043BC00704700BF000022100000311000100240B6
:1043CC000000014000080140000401400AB10161F5
:1043DC007047090401617047C36801EA030221EACE
:1043EC00030141EA0241016170470000074AD368AA
:1043FC0023F4E0631B041B0C000200F4E060034395
:10440C0043F0BF6343F40033D360704700ED00E02A
:10441C0030B4174BDB68C3F30223C3F10704042C3D
:10442C0028BF04241D1D062D18D9033B4FF0FF3562
:10443C0005FA04F421EA0401994005FA03F322EA8F
:10444C000303194300280BDB0901C9B200F16040DA
:10445C0000F5614080F8001330BC70470023E5E79D
:10446C0000F00F000901C9B2024B1954F4E700BF68
:10447C0000ED00E014ED00E0002807DB00F01F0267
:10448C00400901239340024A42F82030704700BF94
:10449C0000E100E00138B0F1807F0AD2064B586091
:1044AC00064AF02182F823100020986007221A6037
:1044BC0070470120704700BF10E000E000ED00E005
:1044CC002DE9F04782B00546884617461E46FFF791
:1044DC0099FA0A9B1B1A03EB0609FFF793FA82461B
:1044EC002A4B1B68C3F3CB3309FB03F301932B68F3
:1044FC009C6838EA04030CBF01240024BC4240D061
:10450C00B6F1FF3FF3D0FFF77DFAA0EB0A00484568
:10451C000AD2B9F1000F07D0019A02B14A46019BA9
:10452C00013B01939146E2E72A68536823F0E003CC
:10453C0053606B68B3F5827F0BD0AB6AB3F5005F49
:10454C0014D0012385F85130002385F85030032016
:10455C0018E0AB68B3F5004F02D0B3F5806FECD127
:10456C002A68136823F040031360E6E72A6813688F
:10457C0023F4005313602A68136843F40053136048
:10458C00DFE7002002B0BDE8F08700BF800000200C
:10459C0010B582B004460B46009200228021FFF732
:1045AC008FFF08B902B010BD636D43F02003636543
:1045BC000320F7E710B582B004460B464168B1F50D
:1045CC00827F10D06168B1F5827F03D1A168B1F50B
:1045DC00806F15D00092002280212046FFF770FFDB
:1045EC00E0B902B010BD8168B1F5004F02D0B1F551
:1045FC00806FE7D12068016821F040010160E1E79C
:10460C000092002201212046FFF75AFF0028E8D033
:10461C00636D43F0200363650320E2E7636D43F0B1
:10462C00200363650320DCE7002856D010B5044650
:10463C00436A33B94368B3F5827F05D00023C36165
:10464C0002E00023036143610023A36294F851301C
:10465C00002B3CD0022384F851302268136823F0DD
:10466C0040031360636803F48273A26802F404428B
:10467C001343E26802F400621343226902F002025F
:10468C001343626902F001021343A26902F400723F
:10469C001343E26902F038021343226A02F08002EB
:1046AC001343A26A02F40052216813430B60638B1C
:1046BC00226803F0040353602268D36923F4006377
:1046CC00D36100206065012384F8513010BD84F85B
:1046DC0050302046FCF752F9BCE7012070472DE919
:1046EC00F04383B01D4690F85030012B00F0CC8085
:1046FC00044688469146012380F85030FFF782F932
:10470C00074694F85160F6B2012E40F0AA80B8F139
:10471C00000F00F0A780B9F1000F00F0A380032375
:10472C0084F8513000236365C4F83080A4F83490C9
:10473C00A4F83690A363A387E38763642364A36818
:10474C00B3F5004F1ED023681A6812F0400F03D146
:10475C001A6842F040021A60E368B3F5006F1CD08F
:10476C00636813B1B9F1010F52D1226B236812782F
:10477C001A73236B01332363E38E9BB2013B9BB211
:10478C00E38645E02268136823F040031360226837
:10479C00136843F480431360D5E7636813B1B9F130
:1047AC00010F16D1226B23681288DA60236B023357
:1047BC002363E38E9BB2013B9BB2E38609E0FFF7D8
:1047CC0021F9C01BA84202D3B5F1FF3F54D1002DF3
:1047DC0054D0E38E9BB2002B2ED023689A6812F033
:1047EC00020FECD0226B1288DA60236B0233236346
:1047FC00E38E9BB2013B9BB2E386EAE7FFF702F93B
:10480C00C01BA84202D3B5F1FF3F39D1002D39D0DE
:10481C00E38E9BB283B123689A6812F0020FEDD03D
:10482C00226B12781A73236B01332363E28E92B2DC
:10483C00013A92B2E286EBE73A4629462046FFF768
:10484C00A7FE08B120236365A36833B901932368DD
:10485C00DA6801929B680193019B636D13B9002682
:10486C0000E00226012384F85130002384F85030F4
:10487C00304603B0BDE8F0830326F3E70326F1E7E7
:10488C000326EFE70326EDE70226F1E72DE9F043D7
:10489C0083B01F460A9D90F85030012B00F0108118
:1048AC00044688469146012380F85030FFF7AAF859
:1048BC00064694F85130DBB26268012B0AD0B2F58F
:1048CC00827F40F0E380A268002A40F0E980042B4C
:1048DC0040F0E880B8F1000F00F0E680B9F1000F6D
:1048EC0000F0E480002F00F0E38094F85130DBB24C
:1048FC00042B02D0052384F8513000236365C4F8DF
:10490C003890E787A787C4F83080E786A7862364AA
:10491C00636423681A6812F0400F03D11A6842F0DE
:10492C0040021A60E368B3F5006F11D063680BB1F5
:10493C00012F0BD1226B236812781A73236B01336E
:10494C002363E38E9BB2013B9BB2E38601276BE0B2
:10495C0063680BB1012F0BD1226B23681288DA60CC
:10496C00236B02332363E38E9BB2013B9BB2E38642
:10497C0001271CE023689A6812F0010F0ED0E28F19
:10498C0092B25AB1DA68A36B1A80A36B0233A36399
:10499C00E38F9BB2013B9BB2E3870127FFF732F811
:1049AC00801BA84203D3B5F1FF3F40F08380E38E18
:1049BC009BB21BB9E38F9BB2002B53D023689A6830
:1049CC0012F0020FD6D0E28E92B2002AD2D0002F73
:1049DC00D0D0226B1288DA60236B02332363E38E10
:1049EC009BB2013B9BB2E3860027C3E723689A681E
:1049FC0012F0010F0ED0E28F92B25AB1DA68A36BAB
:104A0C001A70A36B0133A363E38F9BB2013B9BB280
:104A1C00E3870127FEF7F6FF831BAB4202D3B5F108
:104A2C00FF3F49D1002D49D0E38E9BB213B9E38FE0
:104A3C009BB2BBB123689A6812F0020FD6D0E28EFB
:104A4C0092B2002AD2D0002FD0D0226B12781A73D7
:104A5C00236B01332363E38E9BB2013B9BB2E38652
:104A6C000027C3E7324629462046FFF791FD48B997
:104A7C00A36863B901932368DA6801929B68019378
:104A8C00019B04E020236365012000E00220012348
:104A9C0084F85130002384F8503003B0BDE8F08323
:104AAC000220F4E70220F2E70120F0E70120EEE714
:104ABC000120ECE70320EAE70320E8E70320E6E720
:104ACC000220EAE72DE9F04383B00446884691467C
:104ADC001D464368B3F5827F38D094F85030012BD3
:104AEC0000F0A880012384F85030FEF78BFF0746B6
:104AFC0094F85160F6B2012E40F08980B8F1000FA5
:104B0C0000F08680B9F1000F00F08280042384F855
:104B1C00513000236365C4F83880A4F83C90A4F8A5
:104B2C003E902363A386E38623646364A368B3F592
:104B3C00004F18D023681A6812F0400F03D11A687E
:104B4C0042F040021A60E36813B340E08368002B24
:104B5C00C3D1042380F85130009513460A46FFF761
:104B6C0095FE06465AE02268136823F04003136052
:104B7C002268136823F480431360DBE7FEF742FFDF
:104B8C00C01BA84202D3B5F1FF3F4BD1002D4BD037
:104B9C00E38F9BB2002B2ED023689A6812F0010F82
:104BAC00ECD0A26B1B7B1370A36B0133A363E38F5D
:104BBC009BB2013B9BB2E387EAE7FEF723FFC01BE6
:104BCC00A84202D3B5F1FF3F30D1002D30D0E38F96
:104BDC009BB283B123689A6812F0010FEDD0DA68AA
:104BEC00A36B1A80A36B0233A363E28F92B2013AD8
:104BFC0092B2E287EBE73A4629462046FFF7DAFC09
:104C0C0008B120236365636D13B9002600E002260A
:104C1C00012384F85130002384F85030304603B01F
:104C2C00BDE8F0830326F3E70326F1E70326EFE75D
:104C3C000326EDE70226F1E790F83D30DBB2012BBD
:104C4C0022D1022380F83D300368114A934210D0E0
:104C5C00B3F1804F0DD0A2F59432934209D002F5F6
:104C6C008062934205D01A6842F001021A6000205B
:104C7C0070479A6802F00702062A07D01A6842F0B9
:104C8C0001021A6000207047012070470020704715
:104C9C00002C01407047000008B5044B03EB800268
:104CAC00526852680344187A904708BD5C0C002087
:104CBC0008B5084B1B5C53B9064B01221A5403EB85
:104CCC008002526812681844007A904708BD002090
:104CDC00FCE700BF5C0C002038B5044C04EB8005ED
:104CEC006D68AD680444207AA84738BD5C0C002080
:104CFC0038B5044C04EB80056D68ED680444207AEB
:104D0C00A84738BD5C0C002010B5044B03EB8004A5
:104D1C00646824690344187AA04710BD5C0C002019
:104D2C00531E2AB111F8012B00F8012B1A46F7E794
:104D3C007047531E1AB100F8011B1A46F9E7704769
:104D4C0010B4034600201446013A2CB113F8010BA1
:104D5C0011F8014B001BF6D010BC704703461878B5
:104D6C0018B1884201D00133F9E7704730B40025FF
:104D7C002B4601E001250133012B1ED803EB430226
:104D8C001C4C54F82220002AF4D0D0F80042A24245
:104D9C00F1D103EB4302174C04EB82025468D0F8B8
:104DAC0008229442E7D103EB4302124C04EB82023B
:104DBC001489B0F806229442DDD1022B0CD0B1B983
:104DCC0003EB43030B4A02EB83035B89B3F5807F50
:104DDC000BD0002030BC70472DB9022901D0122015
:104DEC00F8E70020F6E70020F4E71020F2E71020A7
:104DFC00F0E700BF400C0020002000E0013001284B
:104E0C0006D800EB40029300034AD358002BF5D18F
:104E1C00023818BF01207047400C002070B40023EA
:104E2C0000E00133012B1CD803EB43022E4C54F849
:104E3C002240D0F800229442F3D103EB43022A4CD7
:104E4C0004EB82025468D0F808229442E9D103EBB7
:104E5C004302254C04EB82021489B0F806229442DA
:104E6C00DFD1022B1AD039B103EB43021E4800EB01
:104E7C0082025289002A35D179BB03EB43021A49CD
:104E8C0001EB82025189013189B203EB4300164ACE
:104E9C0002EB80025181581C70BC70470023012B1F
:104EAC0007D803EB4302104C54F822200AB101330B
:104EBC00F5E7022B14D0D0F800620B4C03EB430542
:104ECC0004EB850244F82560D0F808425460B0F831
:104EDC000602108100205081C5E74FF48071D4E7A1
:104EEC000020D9E70020D7E7400C0020013801282A
:104EFC001AD800EB40030E4A02EB83035B89B3F52F
:104F0C00807F03D01BB1013B9BB200E0002300EB80
:104F1C004002074901EB820253813BB900EB400090
:104F2C0083000020C8507047022070470020704753
:104F3C00400C0020002302E010BC70470133012B11
:104F4C0017D803EB43020B4951F822208242F5D1CA
:104F5C0010B403EB4302920000248C500133012B5C
:104F6C00EAD803EB4302034951F822208242F5D1DF
:104F7C00EFE77047400C0020D0F824320433490A84
:104F8C00D0F8002292F80222B1FBF2F1186830B18D
:104F9C00814202D3091A0833F8E75868084470476D
:104FAC00CA7E8B7E43EA022390F80022032A01D0AA
:104FBC0018467047487D0A7D42EA002243EA0243C4
:104FCC00F6E78176C1F30723C376C1F30743037574
:104FDC00090E4175704700002DE9F84F89460C68A1
:104FEC0000E0013423782F2BFBD05C2BF9D0D0F8C8
:104FFC0018A20B2220215046FFF79BFE00263346B9
:10500C004FF00808374619E0BF00FFB246464FF094
:10501C000B0812E015F0800F25D129463148FFF717
:10502C009DFE00285AD1A5F14103DBB2192B20D8E3
:10503C0047F002070AF8065001365B4603F1010BF4
:10504C00E55C202D1FD92F2D1DD05C2D1BD02E2DB6
:10505C0001D0B045DED8B8F1080F3DD12E2DD3D0FC
:10506C000620BDE8F88F47F00307803D1E4B5D5DC1
:10507C00D3E7A5F16103DBB2192BDBD847F00107AD
:10508C00203DEDB2D6E75C44C9F80040202D14D881
:10509C0004232EB39AF80020E52A10D0B8F1080F9B
:1050AC0011D007F00302012A10D007F00C07042FCF
:1050BC000FD08AF80B300020D3E70023E9E7052254
:1050CC008AF80020EAE7BF00FFB2EAE743F01003DA
:1050DC00EBE743F00803ECE70620C2E70620C0E745
:1050EC000620BEE7ECA80008FCA8000801460068F2
:1050FC0008B1024603E04FF0FF30704701321378DD
:10510C00202B01D93A2BF9D13A2B01D00020704732
:10511C0010B4034613F8010B3038092808D89A420A
:10512C0002D04FF0FF3005E030B901320A6001E0E7
:10513C004FF0FF3010BC70474FF0FF30FAE72DE90D
:10514C00F04190F8045215B92846BDE8F0810446A8
:10515C00D0F82C72804601233A46014690F80102A1
:10516C00FFF7C6FD0546C8B9002384F80432D4F80D
:10517C002032FB1AD4F818229342E5D294F8036239
:10518C00012EE1D9D4F818321F4401233A46414686
:10519C0094F80102FFF7ACFD013EF1E70125D3E7DE
:1051AC0070B5D0F82C328B4202D10026304670BD3F
:1051BC0004460D46FFF7C3FF06460028F6D101232F
:1051CC002A46214694F80102FFF786FD10B101260C
:1051DC004FF0FF35C4F82C52E8E7000010B5044638
:1051EC00002380F804324FF0FF33C0F82C32FFF765
:1051FC00D7FF98BB024694F8FF1194F8FE3143EAAE
:10520C0001231BB217498B422AD194F8391094F818
:10521C0038301B0443EA016394F8371043EA012346
:10522C0094F836100B4323F07F430F498B4213D075
:10523C0094F8551094F854301B0443EA016394F825
:10524C00531043EA012394F852100B4323F07F438D
:10525C0005498B4200D00122104610BD0322FBE70A
:10526C000222F9E755AAFFFF46415400B0B108B538
:10527C00D0F8003243B193F8001229B1B3F80612FA
:10528C00B0F80422914201D0092008BD93F8010224
:10529C00FFF702FD10F00100F7D0F5E70920704789
:1052AC002DE9F04385B005461746002303600846F8
:1052BC00FFF71CFF061EC0F29981D54B53F8264010
:1052CC00002C00F098812C6094F800327BB194F89B
:1052DC000102FFF7E1FC10F0010508D1002F00F0EE
:1052EC00868110F0040F00F082810A257FE10023F3
:1052FC0084F80032F0B284F80102FFF7D9FC10F008
:10530C00010F40F07A811FB110F0040F40F077814B
:10531C0000212046FFF762FF0546012800F0D480EB
:10532C000027032D00F06D81002D40F06C81227B55
:10533C00E37A43EA02231BB2B3F5007F40F06581A8
:10534C00E27DA37D53EA02230DD194F8272094F833
:10535C0026301B0443EA026394F8252043EA022317
:10536C0094F824201343C4F81832217C84F80312D7
:10537C004A1ED2B2012A00F2558103FB01F1607B77
:10538C0084F80202002800F04F81421E104240F0C7
:10539C004D81A27C667C46EA0226A4F8086216F0CF
:1053AC000F0F40F0458194F814C0E27C52EA0C22B5
:1053BC000ED194F823C094F82220120442EA0C6215
:1053CC0094F821C042EA0C2294F820C042EA0C0264
:1053DC0094F80FE094F80EC05CEA0E2C00F02A81D1
:1053EC000CEB010909EB16194A45C0F02581A2EB1B
:1053FC000902B2FBF0FE8242C0F0208140F6F57249
:10540C0096457AD84FF001084FF6F572964501D9BA
:10541C004FF003080EF1020EC4F814E2C4F81C722B
:10542C000CEB0702C4F8202207EB0900C4F8280291
:10543C00B8F1030F64D0002E00F004811144C4F8BD
:10544C002412B8F1020F71D00EEB4E010EF00102D6
:10545C0002EB510202F2FF12B3EB522FC0F0F480B8
:10546C004FF0FF33C4F81032C4F80C32802384F8A8
:10547C000532B8F1030F5CD084F80082654A1388BA
:10548C0001339BB21380A4F806322046FFF752FD7D
:10549C00ADE0002304AA02EB810242F8103C01317A
:1054AC00032913D80B0103F5DF7323441A79002A5F
:1054BC00EFD0D87A9A7A120442EA0062587A42EA19
:1054CC0000221B7A1343E5E70021E9E700260BE0F5
:1054DC0039462046FFF782FE054600283FF421AFEF
:1054EC000136032E3FF61DAF04AB03EB860353F8D6
:1054FC00107C002FECD10225F2E74FF0020883E775
:10550C00002E40F09D8094F82F1094F82E20120459
:10551C0042EA016294F82D1042EA012294F82C1010
:10552C000A43C4F824224FEA8E0293E74FEA4E0254
:10553C0090E794F8312094F8303043EA02231BB200
:10554C00012B99D1791C2046FFF72AFE002893D114
:10555C00002384F8053294F8FF2194F8FE3143EAD5
:10556C0002231BB22C4A934286D1E278A3781B0407
:10557C0043EA0263627843EA022322781343274A00
:10558C0093427FF479AF94F8E72194F8E6311B0449
:10559C0043EA026394F8E52143EA022394F8E421F8
:1055AC0013431F4A93427FF467AF94F8EB2194F8AE
:1055BC00EA311B0443EA026394F8E92143EA02232B
:1055CC0094F8E8211343C4F8103294F8EF2194F8BE
:1055DC00EE311B0443EA026394F8ED2143EA022303
:1055EC0094F8EC211343C4F80C3245E70B252846FC
:1055FC0005B0BDE8F0830C25F9E70325F7E70A258C
:10560C00F5E70125F3E70D25F1E70D25EFE700BFE1
:10561C003C0C0020580C002055AAFFFF525261414F
:10562C00727241610D25E2E70D25E0E70D25DEE7FD
:10563C000D25DCE70D25DAE70D25D8E70D25D6E796
:10564C000D25D4E70D25D2E70D25D0E738B5044656
:10565C00FFF775FD054658B994F80032032B09D0B5
:10566C000022114694F80102FFF74EFB00B1012510
:10567C00284638BD94F80532012BF1D14FF4007255
:10568C0000212046FFF755FB552384F8FE31AA2351
:10569C0084F8FF315223237063706123A37041227D
:1056AC00E270722184F8E41184F8E51184F8E621A3
:1056BC0084F8E731D4F8103284F8E831C3F30722C8
:1056CC0084F8E921C3F3074284F8EA211B0E84F81D
:1056DC00EB31D4F80C3284F8EC31C3F3072284F8A4
:1056EC00ED21C3F3074284F8EE211B0E84F8EF3151
:1056FC00D4F81C220132C4F82C220123214694F840
:10570C000102FFF7F5FA002384F80532A8E7023905
:10571C00D0F81432023B8B4206D990F80232D0F802
:10572C00280201FB030070470020704701295ED955
:10573C00F8B505460C46D0F814328B4259D990F87E
:10574C000032022B2BD0032B39D0012B01D001209E
:10575C0050E001EB5106D0F8201201EB5621FFF777
:10576C001FFD10B14FF0FF3044E0771CC6F3080664
:10577C00AE5DD5F8201201EB57212846FFF710FD3E
:10578C00002838D1C7F30807E85D46EA002014F07A
:10579C00010F01D000092DE0C0F30B002AE0D0F876
:1057AC00201201EB1421FFF7FBFC38BB640004F45E
:1057BC00FF742B195B78285D40EA03201AE0D0F8BF
:1057CC00201201EBD411FFF7EBFCD0B9A40004F4C8
:1057DC00FE742B19DA789878000440EA02605B7842
:1057EC0040EA03202B5D184320F0704002E00120BA
:1057FC0070470120F8BD4FF0FF30FBE74FF0FF3052
:10580C00F8E74FF0FF30F5E7F8B50746A0F80612B9
:10581C00D0F80842012C46D00E46D0F80032D3F80E
:10582C001422A24241D91CB993F80022032A17D0A2
:10583C00CCB9B3F80822B24239D9D3F82402C7F84C
:10584C000C42D0B300EB1610C7F81002D7F8003298
:10585C0006F00F0103EB4111C7F814120020F8BD3C
:10586C00D3F82442E4E793F802522D0100E0761BB2
:10587C00AE4212D32146D7F80002FFF757FF044679
:10588C00B0F1FF3F15D0012815D9D7F80032D3F865
:10589C0014328342EBD80220E1E72146D7F800020C
:1058AC00FFF735FFCBE70220D9E70220D7E702202C
:1058BC00D5E70120D3E70220D1E70220CFE7012969
:1058CC0040F285802DE9F04105460C461646D0F88D
:1058DC0014328B427DD990F80032022B42D0032B2C
:1058EC0054D0012B02D00220BDE8F08101EB51070E
:1058FC00D0F8201201EB5721FFF752FC0028F3D10E
:10590C0007F10108C7F3080714F001041FD0EB5787
:10591C0003F00F03320102F47F621343DBB2EB5549
:10592C00012385F80432D5F8201201EB58212846C2
:10593C00FFF736FC0028D7D1C8F308084CB1C6F3E2
:10594C00071205F80820012385F80432CCE7F3B2DE
:10595C00E5E715F9082022F00F02C6F303263243BF
:10596C00D2B2EEE7D0F8201201EB1421FFF718FCAD
:10597C000028B9D1640004F4FF742B192E55C6F31A
:10598C0007225A70012385F80432ADE7D0F82012B3
:10599C0001EBD411FFF704FC0028A5D1A40004F4FA
:1059AC00FE742919CA788B781B0443EA026303F04E
:1059BC00704333432E55C6F307224A70C6F3074291
:1059CC008A701B0ECB70012385F804328CE7022001
:1059DC007047022088E7F8B505460F4641B9D0F864
:1059EC000C629EB1D0F81432B34210D801260EE0EE
:1059FC00FFF79CFE034601284BD9B0F1FF3F4DD079
:105A0C00D5F81422824249D83E4600E0012634469D
:105A1C000CE021462846FFF789FE034678B1B0F129
:105A2C00FF3F3BD0012839D0B44236D00134D5F8F1
:105A3C001432A342EDD8012E2DD90224E9E76FF0E0
:105A4C00704221462846FFF73AFF034600B997B942
:105A5C00C3B9C5F80C42D5F81032B3F1FF3F1FD0D3
:105A6C00013BC5F8103295F8053243F0010385F877
:105A7C000532234612E0224639462846FFF71FFF1F
:105A8C000346E5E7012B01D0012307E04FF0FF337C
:105A9C0004E0012302E0002300E000231846F8BDD7
:105AAC002346FBE72DE9F843B0F806526B1C9AB27B
:105ABC00002A00F0838004460F46D0F81022002AFA
:105ACC007ED013F00F060BD10132C0F81022D0F8A3
